:020000040000FA
:10000000700200206D0200007B0200007D020000F3
:100010007F0200007F0200007F020000000000005D
:100020000000000000000000000000007F0200004F
:100030007F020000000000007F020000AB0400000F
:100040007F0200007F0200007F0200007F020000AC
:100050007F0200007F0200007F0200007F0200009C
:100060007F0200007F0200007F0200007F0200008C
:100070007F0200007F0200007F020000AF07000047
:100080007F0200007F0200007F0200007F0200006C
:100090007F0200007F0200007F0200007F0200005C
:1000A0007F0200007F0200007F0200007F0200004C
:1000B0007F0200007F0200007F0200007F0200003C
:1000C0007F0200007F0200007F0200007F0200002C
:1000D0007F0200007F0200007F0200007F0200001C
:1000E0007F0200007F0200007F0200007F0200000C
:1000F0007F0200007F0200007F0200007F020000FC
:100100007F0200007F0200007F0200007F020000EB
:100110007F0200007F0200007F0200007F020000DB
:100120007F0200007F0200007F0200007F020000CB
:100130007F0200007F0200007F0200007F020000BB
:1001400000000000000000000000000000000000AF
:100150007F0200007F020000C70300007F02000052
:10016000000000000000000000000000000000008F
:10017000000000000000000000000000000000007F
:10018000000000000000000000000000000000006F
:10019000000000000000000000000000000000005F
:1001A000000000000000000000000000000000004F
:1001B0008D050000C50700007F0200007F020000DF
:1001C0007F0200007F0200007F0200007F0200002B
:1001D0007F0200007F0200007F0200007F0200001B
:1001E0007F0200007F0200007F0200007F0200000B
:1001F0007F0200007F0200007F0200007F020000FB
:100200007F0200007F0200007F020000000000006B
:100210007F0200007F0200007F0200007F020000DA
:100220007F0200007F0200007F0200007F020000CA
:100230007F0200007F0200007F0200007F020000BA
:100240007F0200007F0200007F0200007F020000AA
:100250007F0200007F0200007F0200007F0200009A
:100260007F0200007F0200007F0200000448016856
:1002700041F47001016000F005B8FEE7FEE7FEE71B
:1002800088ED00E0DFF80CD000F0F6FD00480047F4
:10029000C10B0000700200200138FDD17047000042
:1002A000EFF3108072B67047EFF310807047EFF3F2
:1002B000108062B6704730BF704780F31188704776
:1002C000EFF311807047000010B500F07FFE044886
:1002D00001F06EF800F0D6F800F04CFF10BD000001
:1002E0004005C00170B5002407E0002004EB440184
:1002F0005B4A02EB81018860641C102CF5DB5948D5
:1003000001F00CF95848006840F0806040F022018C
:10031000554801F03EF9562000F0FAFE01215248FE
:1003200001F05AF900F02CFF4FF47A61B0FBF1F0C4
:100330003221B0FBF1F52A46FF214B4801F055F977
:10034000FF21494801F03FF970BD10B54FF4C87264
:1003500011FB02F2642303EB122200EB4003404C3A
:1003600004EB83039A6010BD70B505460C463F4808
:10037000007820B9FFF7B6FF01203C490870E1B2D0
:10038000284600F0A5FE3A48006800EB40003449DA
:1003900041F820503648006800EB400001EB800037
:1003A0004460802132480068FFF7CFFF0022E1B2AD
:1003B000284600F0A9FE2E4800682D490968491C0E
:1003C0002B4A116070BD70B500242A480068401C9B
:1003D0004FF47A61B0FBF1F201FB1200254908608D
:1003E0002FE02448006898B904EB44031C4D05EB4A
:1003F00083035B68DAB204EB440305EB83035B68B9
:10040000D9B204EB440355F8230000F07DFE17E059
:1004100004EB4400124901EB80008068154909682B
:1004200088420DD104EB44020D4B03EB820252686B
:10043000D1B204EB440253F82200002200F064FE23
:10044000641C102C07D004EB4400054901EB80002C
:1004500080680028C5D10121034801F0BBF870BDB8
:1004600030000020040400F000400340040000209D
:100470000000002008000020904800687047904865
:100480000068704710B500208D4908608B490860EE
:1004900000F076FE8B49B0FBF1F4204601F074F8D1
:1004A00001F06BF801F062F810BD85480068401C4F
:1004B00083490860084600688249884207D30020C3
:1004C0007F4908607D480068401C7C49086070478F
:1004D000704770B5002409E0AFF20B007A4941F88B
:1004E0003400002001EBC4014860641C102CF3DBD5
:1004F000764801F013F87648006840F0806040F0DC
:100500002201734801F045F86C2000F001FE012142
:100510006F4801F061F800F033FE4FF47A71B0FBE0
:10052000F1F52A46FF216A4801F05FF8FF2168488B
:1005300001F049F870BD70B506460D4600246548C7
:10054000007820B9FFF7C5FF01206249087015B196
:10055000B5F57A7F01D9012070BD04E0641C102C30
:1005600001DB0120F8E7584800EBC4004068002890
:10057000F4D1554840F834604FF47A70B0FBF5F090
:10058000514901EBC40148600020E5E710B50024A3
:1005900051480068401C504908600FE04A4800EB91
:1005A000C40040684C490968B1FBF0F200FB12102E
:1005B00018B9454951F834008047641C102C05D007
:1005C000414800EBC40040680028E7D101214048C1
:1005D00001F000F810BD2DE9F04104460D463F48FA
:1005E000007868B93E4800F099FF21213D4800F0AD
:1005F000D0FF01213B4800F0EFFF01203749087090
:1006000000F0BEFD2F49B0FBF1F00021A0FB046318
:1006100001FB043100FB05133246324800F0EEFFC7
:10062000FF21304800F0CFFF00BFFF212D4800F030
:10063000D7FF10F0010FF8D14FF6FF71294800F0F5
:10064000BAFFFF21274800F0CBFF06463146254878
:1006500000F0C0FFBDE8F0812DE9F04104460D46F1
:100660004FF47A764FF00000A4FB062705FB0676D0
:1006700004FB00611046FFF7AEFFBDE8F08110B546
:100680000446104804FB00F210460021FFF7A3FFC8
:1006900010BD70B52DED028BB0EE408A9FED120AB1
:1006A00028EE000A10EE101A084600F0BFFB0446C0
:1006B000FFF791FFBDEC028B70BD00001C00002015
:1006C0001800002040420F00F0000020050400F058
:1006D000005003400C0000201000002014000020F7
:1006E000055C00F000F004400024744970B500245B
:1006F00004E00020384941F82400641C022CF8DB97
:10070000364800F00BFF364800F008FF354800F08F
:1007100005FF0C21344800F0CDFC3448006840F05F
:10072000806040F40851314800F033FF4FF480718D
:100730002E4800F051FF00231A4601212C4800F0FA
:10074000D1FB00231A460121294800F0FDFB61235B
:1007500001221146264800F0F7FB4021244800F012
:100760009DFB00F00DFD4FF4FA61B0FBF1F085093F
:100770002A464FF47F411D4800F037FF01211C48F5
:1007800000F0DBFB01211A4800F094FB4FF47F419D
:10079000164800F018FF1F2000F0BAFC6D2000F092
:1007A000B7FC70BD01460C4850F82100704710B5E9
:1007B000094A01210E4800F0AEFB01210C4800F06F
:1007C00074FB10BD10B50121094800F07BFB01212D
:1007D000064800F0FFFE10BD20000020050400F0D8
:1007E00001001000100000200040024000500340B3
:1007F000008003402DE9F04104460D46E64A52F8D8
:1008000024004FF08072526C1169884708B9BDE826
:10081000F081E24850F82400E1490860DE4A52F8CD
:1008200024004FF08072526C916988474FF08071BC
:10083000496C086E804706464FF08070406960231F
:100840002A4631464769D6480068B8474FF080705D
:100850004069C169D2480068884700BFD7E710B532
:1008600004464FF4E1312046FFF7C4FF10BD70B5D8
:1008700005460E46002413E0285D0A2807D14FF0F4
:10088000807040690D210268C54800689047295D65
:100890004FF0807040690268C14800689047641C4E
:1008A000B442E9D3204670BD2DE9F04106460F461B
:1008B00000257F1E32E04FF080704069816BB848A0
:1008C00000688847C4B2082C06D125B10321B5A021
:1008D000FFF7CDFF6D1E21E00A2C06D1B24800784B
:1008E00018B10020B049087018E00D2C03D00A2C74
:1008F00001D01B2C05D10D2C02D10120AA49087072
:100900000DE0BD4209D274556D1C4FF080704069F6
:1009100021460268A2480068904700BFCBE700BFAD
:10092000002070550221A1A0FFF7A1FF2846BDE8D5
:10093000F08110B54FF080704069816B9848006875
:100940008847C0B210BD0FB42DE9F04786B00FA89C
:10095000009015E1002400E0641C0E98005D25283D
:1009600003D00E98005D0028F6D121460E98FFF7BF
:100970007EFF0E9820440E900E9800782528E8D12E
:100980000E98401C0E9000254FF0200A00BF0E98D4
:1009900010F8011B0E90382930D014DC332928D0F0
:1009A00008DC252976D0302920D031291FD03229E2
:1009B00071D11DE034291DD035291CD036291BD01A
:1009C0003729F5D119E0702975D008DC392916D0FE
:1009D00058296FD0632922D06429E9D12AE07329EC
:1009E0003CD0752958D07829E2D162E000BF00BF21
:1009F00000BF00BF00BF00BF00BF00BF00BF0E9818
:100A000010F8010C302801D105B9824605EB8500AC
:100A100045000E9810F8010C30380544B7E70098EF
:100A2000006805900098001D0090012105A8FFF7BF
:100A30001EFFA4E00098006805900098001D00903B
:100A400000270598002805DA0598404205904FF0E8
:100A5000010801E04FF000080A2637E0009850F83E
:100A6000049B0090002400E0641C19F80400002896
:100A7000FAD121464846FFF7FAFEA54209D92D1BB7
:100A800003E001214AA0FFF7F2FE2800A5F10105CD
:100A9000F7D174E068E06DE0009800680590009878
:100AA000001D009000270A264FF000080EE002E02B
:100AB00000E000BF00BF0098006805900098001D8E
:100AC0000090002710264FF0000800BF012401E02D
:100AD00074436D1E04FB06F00599884205D804FB9B
:100AE00006F0B0FBF6F0A042F2D0B8F1000F00D053
:100AF0006D1EB8F1000F09D0BAF1300F06D12D22CA
:100B000038467F1C01A90A544FF00008012D0BD96B
:100B1000102D09D26D1E05E038467F1C01A901F891
:100B200000A06D1E002DF7D1B8F1000F04D02D22CA
:100B300038467F1C01A90A540FE00598B0FBF4F079
:100B4000B0FBF6F106FB11001A4909680A5C384649
:100B50007F1C01A90A54B4FBF6F4002CEDD13946F0
:100B600001A8FFF784FE0AE00E99481E0121FFF755
:100B70007EFE04E0052110A0FFF779FE00BF00BF54
:100B80000E98007800287FF4E5AE009006B0BDE82E
:100B9000F0075DF814FB00003C1600003016000062
:100BA00028000020082008002C0000200D0A00006A
:100BB000200000002C1600004552524F5200000049
:100BC000FFF782FB00F0CAF84BE026A0FFF7BBFE60
:100BD0002CA0FFF7B8FE33A0FFF7B5FE39A0FFF752
:100BE000B2FE42A0FFF7AFFE00F0CCF8044620466C
:100BF00000F0C1F82AA0FFF7A6FE302C05D13CA0DA
:100C0000FFF7A1FE00F0C4F82BE0312C06D13BA089
:100C1000FFF799FE3DA0FFF796FE22E0322C06D1A9
:100C20003CA0FFF790FE39A0FFF78DFE19E0332CB2
:100C300006D13CA0FFF787FE34A0FFF784FE10E04A
:100C4000342C06D13CA0FFF77EFE30A0FFF77BFEE0
:100C500007E0352C05D13DA0FFF775FE2BA0FFF76F
:100C600072FEB2E70A5241532044656D6F20666FF1
:100C70007220526F626F746174686F6E203230310F
:100C8000320A00002020303D554152542044656D09
:100C90006F0A2020313D4D6F746F722044656D6F77
:100CA0000A0000002020323D536572766F204465B3
:100CB0006D6F0A2020333D4C696E652053656E735D
:100CC0006F720A002020343D49522053656E736FC5
:100CD000722044656D6F0A2020353D456E636F6458
:100CE0006572732044656D6F0A0000003E3E20006F
:100CF0000A554152542044656D6F0A000A4D6F74C5
:100D00006F722044656D6F0A000000000A203A509F
:100D1000200A00000A536572766F2044656D6F0AE1
:100D2000000000000A4C696E652053656E736F7297
:100D30002044656D6F0A00000A49522053656E73A6
:100D40006F722044656D6F0A000000000A456E63F3
:100D50006F646572732044656D6F0A0010B520489A
:100D600000F0DCFB03214FF0402000F0BFF9002031
:100D7000FFF775FD10BD10B50446214619A0FFF719
:100D8000E2FD10BD10B5FFF7D4FD0446204610BDAE
:100D900030B599B014A0FFF7D6FD64216846FFF77F
:100DA00083FD694616A0FFF7CEFD19A0FFF7CBFD26
:100DB0000D25FFF7E7FF044605E0FFF7E3FF0446D4
:100DC0002046FFF7D8FFAC42F7D119B030BD10B5BF
:100DD000154800F016FC08B1012010BD0020FCE70A
:100DE000010000202563000074656C6C206D652097
:100DF000736F6D657468696E67210A2D3E2000006F
:100E0000796F7520736169642C20222573220A0092
:100E10007468616E6B7320666F72207468652069F8
:100E20006E707574210A000000C0004020F0004080
:100E3000C20DC0F3160040F400007F2A01DA002042
:100E400004E0962A04DCC2F19601C84000217047F4
:100E50000021963AAFF30080202A04DB203A00FA02
:100E600002F1002070479140C2F1200320FA03F301
:100E70001943904070470000064C074D06E0E068BB
:100E800040F0010394E8070098471034AC42F6D3D1
:100E9000FFF7FCF93419000054190000002249083A
:100EA00014BF521C0263FAD17047012202FA01F109
:100EB000C1607047012202FA01F1C16082681143EA
:100EC000816070470A4601F00F014FF001036FF394
:100ED0000F0203FA01F142EA0101826A41EA0201CA
:100EE0008162704710B4446989004FF00F0C0CFA0E
:100EF00001FC02F00F0224EA0C048A402243426102
:100F0000026A03F0030322EA0C0203FA01F111431F
:100F1000016210BC704700EB411000F1400100205D
:100F200003E08B6842F8043B401CCB6813F4807FDD
:100F300018BF70470828F4D370470268012303FAEA
:100F400001F111430160704710B400EB41109100B2
:100F500050F840CF0F228A4003F00F042CEA020C15
:100F60008C404CEA040CC0F800C0D0F818C0C3F3A1
:100F700003242CEA020C8C404CEA040CC0F818C084
:100F8000D0F804C0C3F303142CEA020C8C404CEAE2
:100F9000040CC0F804C013F4702F4FF001040DD0FE
:100FA000D0F814C0C3F302432CEA02028B401A4368
:100FB0004261026904FA01F1114304E0026904FA92
:100FC00001F122EA0101016110BC70470248016889
:100FD00041F040410160704734EF00E0D0F8003448
:100FE00012F0010F14BF0B438B43C0F8003412F012
:100FF000020FD0F8202414BF114322EA0101C0F8E7
:1010000020147047D0F800C512F0010F14BF4CEA4D
:10101000010C2CEA010CC0F800C5D0F804C512F090
:10102000020F14BF4CEA010C2CEA010CC0F804C5F5
:10103000D0F808C512F0040F14BF4CEA010C2CEADA
:10104000010CC0F808C512F0080FD0F8182514BF1D
:101050000A438A43C0F81825D0F80C2513F0010F75
:1010600014BF0A438A43C0F80C25D0F8102513F0AA
:10107000020F14BF0A438A43C0F81025D0F8142584
:1010800013F0040F14BF0A438A43C0F81425D0F8A4
:101090001C2513F0080F14BF0A438A43C0F81C250F
:1010A000D0F82825002B0CBF114322EA0101C0F81B
:1010B0002815704730B504460D460022FFF78EFF15
:1010C00029462046BDE8304000230122FFF79ABFA1
:1010D00030B504460D4608230122FFF793FF294649
:1010E0002046BDE830400122FFF778BF30B5044606
:1010F0000D460222FFF772FF29462046BDE8304028
:1011000008230122FFF77EBF40F82120704700002E
:101110001649042804BF086840F4803018D0052818
:1011200004BF086840F4003012D0062812D00F28FF
:1011300015D0102838BF7047103800F01F01012269
:1011400002FA01F142090A4850F822000160704792
:1011500008607047086840F48020086070474FF0CE
:10116000E020016941F002010161704724ED00E0D7
:101170000417000010B5FFF79AF8C0B210BD0000C8
:10118000DFF800C230B4DCF86020DCF8701011F039
:10119000004F14BF01F0700002F030007A4C30288C
:1011A00008BF47F2305065D007DA98B1774D784BD9
:1011B000102816D020280AD138E0602808BF4FF444
:1011C000800057D0702808BF4FF4004052D030BC88
:1011D000002070476F4B02F4F86003EB10100068BA
:1011E00048E0DCF8000010F0E04F1BD0DCF8000015
:1011F0002040B0F1805F15D0DCF800002040A8420C
:1012000004D1DCF8000080B202280DD0DCF8000028
:101210002040984204D1DCF800000004000C03D008
:101220005D4827E05D4825E05D4823E0DCF80000EC
:1012300010F0E04F1BD0DCF800002040B0F1805FE0
:1012400015D0DCF800002040A84204D1DCF80000F2
:1012500080B202280DD0DCF800002040984204D172
:10126000DCF800000004000C03D04E4802E04E48B9
:1012700000E04E4811F0004F02D011F4006F05D08D
:1012800001F0004302F400652B4345D1DCF8003047
:101290002340A3F18055B5F5A0251AD1DCF86031C3
:1012A000DCF864C10CF01F04CCF3042C641C0CF1BA
:1012B000010C14FB0CFC4FEA4C0CB0FBFCF0C3F32C
:1012C000090C0CFB00FCC3F3892358430CEB902062
:1012D00020E0DCF86430DCF8005015F0E04F36D048
:1012E000DCF800C00CEA040CBCF1805F2FD04FEAA0
:1012F000C36C4FEA9C6CC3F348140CF1020C6043BE
:10130000B0FBFCF013F4804F18BF400813F4004FFB
:1013100018BF800842F4800212F4800F04BF30BC72
:10132000704711F0004F25D011F0804F08D011F414
:10133000006F17D001F0004302F400621A4311D08D
:10134000C1F3C551491CB0FBF1F030BC7047C3F389
:10135000481C0CF1020C00FB0CF003F01F0C0CF10C
:10136000020CCDE74000C1F38651491CB0FBF1F0FF
:1013700030BC7047C2F3C351491CB0FBF1F030BC24
:101380007047000000E00F400000FF7000000110F7
:1013900000000310941700000024F400C0E1E400F2
:1013A000001BB70000093D0070383900C0C62D0091
:1013B0002DE9F041DFF850810446D8F8000010F024
:1013C000E04F06D0D8F8000050490840B0F1805FE7
:1013D00004D114F0004F18BFBDE8F081D8F86010B8
:1013E000D8F8700021F4800141F4006540F40066F3
:1013F000C8F86050C8F8706015F0020F02D014F001
:10140000020F04D025EA040010F0010F16D064F09A
:1014100003000540C8F8605016F0004F07D006F0F2
:101420007000302859D07020B04356D002E03020F0
:10143000A84352D04FF40020FEF72EFF25F4FE60A3
:1014400004F4FE6141EA0007314926F0700020F003
:1014500000402140084304F0080140EAC105C8F8F3
:101460006070C8F870501020FEF716FF27F4405047
:1014700004F44051014325F4005004F40052104399
:101480004022C8F8582010F0004F08BFC8F860107C
:10149000C8F8700018BFC8F8601021F003011D4A99
:1014A00021F0F8612240114320F0FC5004F0FC527E
:1014B000104314F0804F08BF20F0804206D0164A37
:1014C00020F48000224041F48001024314F4006FB4
:1014D00008BF4FF4004003D00DE04FF48050ABE75D
:1014E000D8F8503013F0400F01D1401EF8D121F44C
:1014F000006122F40062C8F86010C8F87020BDE8EE
:10150000F0411020FEF7C8BE00E00F400000FF7061
:10151000300000800300C007000040404FF07041E1
:1015200081430CD00F49020F51F822100A6883B290
:10153000C0F3044003FA00F0104308607047C0F3A2
:1015400007230949C0B2194401F07043C1F31301E4
:1015500043EA411141EA800040F00070012202603C
:10156000704700007017000000E60F404FF0E020C9
:10157000016941F00501016170474FF0E020016908
:1015800041F00201016170474FF0E021401E4861C7
:101590007047C26822F0010222F48072C2600A0E13
:1015A0000260CAB242F400724260C1F3072141F402
:1015B000007181607047C26840F20113194022EA4D
:1015C0000101C1607047C26840F201131940114324
:1015D000C160704741627047826911438161704701
:1015E000002914BF006AC069704711F0FF0F18BFCF
:1015F000826211F47F4F18BFC2627047C362826279
:1016000070478069012121EA1010704702E008C884
:10161000121F08C1002AFAD170477047002001E06C
:1016200001C1121F002AFBD17047000020190000E1
:1016300000C0004000D0004000E000400100001069
:101640000200001004000010000700000006000067
:10165000000500000004000000030000000200007C
:1016600000010000000000000000000018ED00E094
:101670001CED00E020ED00E000E400E004E400E008
:1016800008E400E00CE400E010E400E014E400E012
:1016900018E400E01CE400E020E400E024E400E0C2
:1016A00028E400E02CE400E030E400E034E400E072
:1016B00038E400E03CE400E040E400E044E400E022
:1016C00048E400E04CE400E050E400E054E400E0D2
:1016D00058E400E05CE400E060E400E064E400E082
:1016E00068E400E06CE400E070E400E074E400E032
:1016F00078E400E07CE400E080E400E084E400E0E2
:1017000088E400E000E100E004E100E008E100E03E
:101710000CE100E010E100E080E100E084E100E0A5
:1017200088E100E08CE100E090E100E000E200E010
:1017300004E200E008E200E00CE200E010E200E079
:1017400080E200E084E200E088E200E08CE200E079
:1017500090E200E010E00F4014E00F401CE00F406A
:1017600010E00F4040E00F4044E00F4048E00F40E1
:1017700000E10F4004E10F4008E10F4010E10F408D
:1017800014E10F4018E10F4020E10F4024E10F4029
:1017900028E10F4040420F0000201C0080841E0002
:1017A00000802500999E36000040380000093D0069
:1017B00000803E0000004B00404B4C0000204E00DB
:1017C000808D5B0000C05D000080700000127A0018
:1017D00000007D0080969800001BB7000080BB00D1
:1017E000C0E8CE00647ADA000024F4000000FA00B9
:1017F00080A81201002D310100366E0140787D0174
:1018000001001000003800F002001000013800F064
:1018100000011000003400F000021000013400F05C
:1018200000041000023400F000011010003C00F031
:1018300000021010003C00F000041010003C00F00A
:1018400001000020000800F002000020010800F064
:1018500004000020020800F008000020030800F047
:1018600010000020040800F020000020050800F00F
:1018700040000020060800F080000020070800F06B
:1018800000010020080800F040000000001400F0F3
:1018900000100010002000F000400010012000F0B7
:1018A00010001000004000F000010010004400F0A3
:1018B00000020010014400F010000010001C00F0B5
:1018C00020000010011C00F001001010000400F0C6
:1018D00002001010010400F004001010020400F0D7
:1018E00008001010030400F001000010001800F0C0
:1018F00002000010011800F004000010021800F0AF
:1019000000200020000C00F001001020002800F052
:1019100008000000000000F000101000010000F0BE
:101920003031323334353637383961626364656655
:1019300000000000541900000000002030000000EA
:101940000C16000084190000300000204002000046
:101950001C16000000000000000000000000000055
:101960000000000000000000000000000000000077
:101970000000000000000000000000000000000067
:041980000000000063
:040000050000026D88
:00000001FF
